:04000000B8EF12F053
:10100000003738392F3435362A3132332D23303DED
:101010002B546F204D756368204F70657261746941
:101020006F6E73004F7574204F6620537061636557
:0510300000256900002D
:1010360069EC14F0710E0B6E000E0C6E6F0E0D6ED9
:10104600000E0E6EA7EC0EF07F6E020E596E040EA9
:10105600586EBA0EE82EFED7582EFCD7592EFAD760
:1010660000D03D0E6F18D8A43BEF08F03DEF08F016
:10107600F0EF08F0790E136E000E146E6FC015F0C7
:10108600D1EC11F07F6EB40E076E000E086EA3EC65
:101096000BF007C060F008C061F0A00E076E000EEE
:1010A600086EA3EC0BF007C05EF008C05FF02B0ED5
:1010B6006518D8A461EF08F063EF08F06BEF08F04D
:1010C6005E506024626E5F506120636EAEEF08F082
:1010D6002D0E6518D8A472EF08F074EF08F07CEFB7
:1010E60008F05E50605C626E5F506158636EAEEFF2
:1010F60008F02A0E6518D8A483EF08F085EF08F0EB
:1011060095EF08F060C001F061C002F05EC003F028
:101116005FC004F032EC14F001C062F002C063F06C
:10112600AEEF08F02F0E6518D8A49CEF08F09EEFDE
:1011360008F0AEEF08F060C001F061C002F05EC0DA
:1011460003F05FC004F093EC0FF001C062F002C040
:1011560063F0AEEF08F0000E616E000E606E000EDA
:101166005F6E000E5E6E000E656E000E666E62C0ED
:1011760053F063C054F0C80E556E000E566E16EC52
:1011860013F07F6E790E176E000E186EC80E196E6C
:10119600000E1A6E0AEC11F07F6EB40E016E000E90
:1011A600026E000E046E000E036E000E066E0A0E30
:1011B600056EE8EC0AF0A00E016E000E026E000E3F
:1011C600046E000E036E000E066E0A0E056EE8EC47
:1011D6000AF0000E6F6E1DEF08F0230E6F18D8A4EC
:1011E600F7EF08F0F9EF08F02EEF09F0790E136E1D
:1011F600000E146E010E156E0CEC12F07F6E000ED2
:101206006F6E000E616E000E606E000E5F6E000E59
:101216005E6E000E666E000E656EB40E016E000EFA
:10122600026E000E046E000E036E000E066E0A0EAF
:10123600056EE8EC0AF0A00E016E000E026E000EBE
:10124600046E000E036E000E066E0A0E056EE8ECC6
:101256000AF01DEF08F06F50D8B434EF09F036EFFE
:1012660009F01AEF0AF0790E136E000E146E6FC0B5
:1012760015F0D1EC11F07F6E6650D8A445EF09F059
:1012860047EF09F080EF09F02A0E6F18D8B44EEF39
:1012960009F050EF09F080EF09F02D0E6F18D8A471
:1012A60057EF09F059EF09F062EF09F0605061104D
:1012B600D8A460EF09F062EF09F080EF09F02B0E79
:1012C6006F18D8B469EF09F06BEF09F080EF09F0F9
:1012D6002F0E6F18D8B472EF09F074EF09F080EF93
:1012E60009F0B40E6024D96E000E6120DA6E6FC06C
:1012F600DFFF604A612AEAEF09F06604D8A486EFA8
:1013060009F088EF09F0C1EF09F02A0E6F18D8B47A
:101316008FEF09F091EF09F0C1EF09F02D0E6F186C
:10132600D8A498EF09F09AEF09F0A3EF09F05E5000
:101336005F10D8A4A1EF09F0A3EF09F0C1EF09F0FF
:101346002B0E6F18D8B4AAEF09F0ACEF09F0C1EF75
:1013560009F02F0E6F18D8B4B3EF09F0B5EF09F006
:10136600C1EF09F0A00E5E24D96E000E5F20DA6E82
:101376006FC0DFFF5E4A5F2AEAEF09F06550D8A426
:10138600C7EF09F0C9EF09F0DBEF09F06FC065F0B0
:101396006604D8A4D1EF09F0D3EF09F0D7EF09F02E
:1013A600000E666EEAEF09F0010E666EEAEF09F0CE
:1013B600790E1E6E000E1F6E010E206E010E216E3E
:1013C600110E226E100E236EE9EC12F07F6E000EE7
:1013D6006F6E0A0E5E185F10D8B4F4EF09F0F6EFE0
:1013E60009F000EF0AF00A0E60186110D8A4FEEFAB
:1013F60009F000EF0AF01AEF0AF0790E136E000EEC
:10140600146E010E156E0CEC12F07F6E790E1E6EC8
:10141600000E1F6E010E206E010E216E240E226E2E
:10142600100E236EE9EC12F07F6E1DEF08F01DEF33
:1014360008F000EF00F01FBE23EF0AF026EF0AF0D7
:10144600010E27EF0AF0000E286E2850D8B42EEFB2
:101456000AF030EF0AF034EF0AF01E6C1F1ED8B007
:101466001F2A5DBE3BEF0AF039EF0AF041EF0AF0A2
:10147600000E236E010E226E45EF0AF05CC022F0CC
:101486005DC023F05AC024F05BC025F02850D8B4C4
:101496004FEF0AF051EF0AF068EF0AF02406D8A0E1
:1014A60025062850D8A45AEF0AF05CEF0AF062EF3E
:1014B6000AF0000E216E2B0E206E66EF0AF0000E6B
:1014C600216E2D0E206E20C028F0000E276E1F0EF6
:1014D600266E000E00019F6FA1EF0AF02606D8A027
:1014E6002706800E2624D96E000E2720DA6E1EC02F
:1014F60001F01FC002F0000E046E0A0E036EB2EC7D
:1015060010F001C007F002C008F0FCEC13F0075021
:10151600300FDF6E2206D8A023062406D8A02506A3
:101526001EC001F01FC002F0000E046E0A0E036E0C
:1015360093EC0FF001C01EF002C01FF027BEACEF07
:101546000AF0275008E12604D8A0ACEF0AF0AEEF67
:101556000AF0C4EF0AF01E501F10D8A4B5EF0AF027
:10156600B7EF0AF071EF0AF023BEC4EF0AF023507A
:1015760006E12204D8B0C2EF0AF0C4EF0AF071EF18
:101586000AF02850D8B4CAEF0AF0CCEF0AF0D7EF29
:101596000AF02606D8A02706800E2624D96E000E4D
:1015A6002720DA6E28C0DFFF1CC011F01DC012F024
:1015B600800E2624136E000E2720146E24C015F00C
:1015C60025C016F058EC11F0120001C00BF002C055
:1015D6000CF005500610D8A4F3EF0AF0F5EF0AF068
:1015E600F7EF0AF0A2EF0BF00BC0D9FF0CC0DAFF41
:1015F60003C0DFFF05500B24076E06500C20086E53
:10160600FF0E0724D96EFF0E0820DA6E03C0DFFF37
:10161600065007E1030E055CD8B014EF0BF016EF89
:101626000BF018EF0BF0A2EF0BF020EE01F00B50D1
:10163600D9260C50DA2203C0DFFF20EE02F00B5051
:10164600D9260C50DA2203C0DFFF05500B24076EA3
:1016560006500C20086EFE0E0724D96EFF0E0820D9
:10166600DA6E03C0DFFF05500B24076E06500C2010
:10167600086EFD0E0724D96EFF0E0820DA6E03C031
:10168600DFFF065007E1070E055CD8B04DEF0BF003
:101696004FEF0BF051EF0BF0A2EF0BF020EE03F043
:1016A6000B50D9260C50DA2203C0DFFF05500B245D
:1016B600076E06500C20086EFC0E0724D96EFF0E2E
:1016C6000820DA6E03C0DFFF065007E1090E055C4D
:1016D600D8B070EF0BF072EF0BF074EF0BF0A2EFD7
:1016E6000BF00BC007F00CC008F0071E081E074AD7
:1016F600082A030E0714096E0A6A09500B260A50B7
:101706000C220950055E0A50065AFC0E0516FF0EFD
:10171600061699EF0BF00BC0D9FF0CC0DAFF03C019
:10172600DFFF0506D8A006060B4A0C2A0550061050
:10173600D8A4A0EF0BF0A2EF0BF08EEF0BF0120087
:10174600000E0F6E000E0E6E000E0D6E000E0C6E6D
:10175600AFEF0BF0074A082A07C0D9FF08C0DAFF27
:10176600200EDE18D8B4BAEF0BF0BCEF0BF0ADEFDD
:101776000BF007C0D9FF08C0DAFFDF50096EF70E7D
:1017860009240A6E0B6AFF0E0B220B5009E1050EA7
:101796000A5CD8A0D1EF0BF0D3EF0BF0ADEF0BF056
:1017A600DDEF0BF0000E0D6E010E0C6E074A082AD7
:1017B60012EF0CF007C0D9FF08C0DAFFDF50096E40
:1017C6000A6A0A50000AD8B4EBEF0BF012EF0CF0DD
:1017D60009502B0AD8B4D9EF0BF0060AD8B4D5EFC6
:1017E6000BF012EF0CF00EC001F00FC002F0000E6D
:1017F600046E0A0E036E32EC14F007C0D9FF08C05F
:10180600DAFFDF50096E0950015E000E025A300EF3
:1018160001240E6E000E02200F6ED9EF0BF007C0EA
:10182600D9FF08C0DAFFDF50096ED00E09240A6E10
:101836000B6AFF0E0B220B5009E10A0E0A5CD8A0B8
:1018460027EF0CF029EF0CF0F6EF0BF00C500D1013
:10185600D8A430EF0CF032EF0CF040EF0CF00EC0D5
:1018660009F00FC00AF0091E0A1E094A0A2A09C011
:1018760007F00AC008F044EF0CF00EC007F00FC0E6
:1018860008F01200010E096E01500210D8B44EEF96
:101896000CF050EF0CF061EF0CF001C0D9FF02C064
:1018A600DAFFDF30E832E832070B036E070E036417
:1018B6005FEF0CF061EF0CF0C4EF0CF0000E096E58
:1018C600E5EF0CF001C0D9FF02C0DAFFDF30E832E5
:1018D600E832070B036E010E046E032A75EF0CF057
:1018E600D8900436032E73EF0CF00450FF0A056EF1
:1018F60001C0D9FF02C0DAFFDF50070B066E0650A3
:10190600020DE70EF324D96E000EF420DA6EDECF58
:1019160007F0DDCF08F007C0D9FF08C0DAFF055091
:10192600DF16E5EF0CF001C0D9FF02C0DAFFDF30A9
:10193600E832E832070B036E010E046E032AA6EFA7
:101946000CF0D8900436032EA4EF0CF001C0D9FF9A
:1019560002C0DAFFDF50070B056E0550020DE70ED9
:10196600F324D96E000EF420DA6EDECF06F0DDCF5A
:1019760007F006C0D9FF07C0DAFF0450DF12E5EF13
:101986000CF001C0D9FF02C0DAFFDFBCCDEF0CF0CE
:10199600D0EF0CF0010ED1EF0CF0000E036E046ACE
:1019A6000450000AD8B4DAEF0CF061EF0CF00350E3
:1019B600000AD8B465EF0CF0010AD8B496EF0CF023
:1019C60061EF0CF00950120017501810D8A4EEEF72
:1019D6000CF0F0EF0CF0F4EF0CF0000E1C6E7EEF46
:1019E6000DF0040E17240B6E000E18200C6E82EC00
:1019F60012F01C6E050E17240B6E000E18200C6ECE
:101A060082EC12F01C6E000E1B6E000E1A6E1A503F
:101A160017240B6E1B5018200C6E82EC12F01A4A1B
:101A26001B2A1BBE20EF0DF01B5009E1040E1A5CA9
:101A3600D8A020EF0DF022EF0DF00AEF0DF01A0EF0
:101A4600196EF80EE82EFED7192EFCD700D017C057
:101A560013F018C014F0380E156E0CEC12F0070EC9
:101A6600196E7D0EE82EFED7192EFCD700F017C092
:101A760013F018C014F0380E156E0CEC12F0320E7E
:101A8600E82EFED717C013F018C014F0380E156EE6
:101A96000CEC12F017C013F018C014F0010E156EFE
:101AA6000CEC12F017C013F018C014F0020E156EED
:101AB6000CEC12F017C013F018C014F0060E156ED9
:101AC6000CEC12F017C013F018C014F00C0E156EC3
:101AD6000CEC12F017C013F018C014F0280E156E97
:101AE6000CEC12F017C013F018C014F0800E156E2F
:101AF6000CEC12F01C6E1C501200010E0A6E015006
:101B06000210D8B489EF0DF08BEF0DF09CEF0DF0BD
:101B160001C0D9FF02C0DAFFDF30E832E832070B36
:101B2600046E070E04649AEF0DF09CEF0DF0FFEFC4
:101B36000DF0000E0A6E14EF0EF001C0D9FF02C0C0
:101B4600DAFFDF30E832E832070B046E010E056E6D
:101B5600042AB0EF0DF0D8900536042EAEEF0DF046
:101B66000550FF0A066E01C0D9FF02C0DAFFDF503A
:101B7600070B076E0750020DD30EF324D96E000E25
:101B8600F420DA6EDECF08F0DDCF09F008C0D9FF09
:101B960009C0DAFF0650DF1614EF0EF001C0D9FFB8
:101BA60002C0DAFFDF30E832E832070B046E010EBE
:101BB600056E042AE1EF0DF0D8900536042EDFEF0E
:101BC6000DF001C0D9FF02C0DAFFDF50070B066E29
:101BD6000650020DD30EF324D96E000EF420DA6EF1
:101BE600DECF07F0DDCF08F007C0D9FF08C0DAFF67
:101BF6000550DF1214EF0EF00350046E056A05500F
:101C0600000AD8B409EF0EF09CEF0DF00450000A5C
:101C1600D8B4A0EF0DF0010AD8B4D1EF0DF09CEFC7
:101C26000DF00A5012002BC0D9FF2CC0DAFFDECF10
:101C3600F6FFDDCFF7FF0800F550250AD8A426EFFA
:101C46000EF028EF0EF092EF0EF02BC0D9FF2CC04D
:101C5600DAFFDE2A000EDD22000E5B6E000E5A6EE3
:101C66005AC064F05C685D682BC0D9FF2CC0DAFFEF
:101C7600DECF35F0DDCF36F035C0F6FF36C0F7FFE4
:101C86000800F550640AD8B44BEF0EF04DEF0EF095
:101C96005BEF0EF035C0F6FF36C0F7FF0800F550D3
:101CA600690AD8A459EF0EF05BEF0EF089EF0EF03B
:101CB6002DC0D9FF2EC0DAFFDFCF2FF0020EDE26B1
:101CC600DFCF30F0000EDD222FC0D9FF30C0DAFFA3
:101CD600DECF31F0DDCF32F0010E35242F6E000E4F
:101CE6003620306E2BC0D9FF2CC0DAFF2FC0DEFFA6
:101CF60030C0DDFF29C01CF02AC01DF031C01EF027
:101D060032C01FF01EEC0AF0A6EF0EF02BC0D9FF72
:101D16002CC0DAFFDE2A000EDD22A6EF0EF02BC065
:101D2600D9FF2CC0DAFFDECFF6FFDDCFF7FF0800C4
:101D3600F550016E026A29C003F02AC004F02EECA9
:101D46000FF089EF0EF01200000E126E000E146EE8
:101D5600000E136E000E156E0B500C10D8B4B6EFB5
:101D66000EF0B8EF0EF0C1EF0EF00D500E10D8A425
:101D7600BFEF0EF0C1EF0EF0C5EF0EF0000E116EC4
:101D86002CEF0FF0000E146E000E136E13500B2482
:101D9600016E000E0C20026E000E036E80EC0DF03C
:101DA600132A030E1364DAEF0EF0DCEF0EF0C9EF20
:101DB6000EF014500B24016E000E0C20026E010E64
:101DC600036E80EC0DF0000E156E15500B240F6E91
:101DD600000E0C20106E040E0F24016E000E102053
:101DE600026E120E036E000E046E56EC10F0116EAB
:101DF6001204D8A401EF0FF003EF0FF01AEF0FF063
:101E06001450040D010EF3240F6E100EF420106E04
:101E160015500F26000E10220FC0F6FF10C0F7FF58
:101E26000DC0D9FF0EC0DAFF0800F5CFDFFF152A77
:101E3600030E156421EF0FF023EF0FF0E8EF0EF01D
:101E4600142A030E14642AEF0FF02CEF0FF0C7EFDD
:101E56000EF01150120003500410D8B435EF0FF0F5
:101E660037EF0FF040EF0FF003500410D8A43EEF09
:101E76000FF040EF0FF045EF0FF001506CEC14F04F
:101E860092EF0FF020EE0AF00350D9260450DA2222
:101E9600DE50DE10D8B452EF0FF054EF0FF06FEFB4
:101EA6000FF020EE0AF00350D9260450DA2210EE85
:101EB60003F00350E1260450E222DE50E65CE650D1
:101EC600800A096EDE50800A0958D8B06DEF0FF00F
:101ED6006FEF0FF092EF0FF020EE03F00350D926CC
:101EE6000450DA22DECF05F0DDCF06F003C0D9FFBD
:101EF60004C0DAFFDECF07F0DDCF08F00550072477
:101F0600D96E06500820DA6E01C0DFFF20EE03F01E
:101F16000350D9260450DA22DE2A000EDD221200F2
:101F2600000E066E04BE9CEF0FF09AEF0FF0A2EFC4
:101F36000FF0036C041ED8B0042A010E066E02BE12
:101F4600A9EF0FF0A7EF0FF0AFEF0FF0016C021E35
:101F5600D8B0022A010E061A000E086E000E076E91
:101F660003500410D8B4BAEF0FF0BCEF0FF0E4EF53
:101F76000FF0010E056EC4EF0FF0D890033604364D
:101F8600052A04AEC9EF0FF0CBEF0FF0C0EF0FF04C
:101F9600D890073608360350015C04500258D8A082
:101FA600D7EF0FF0D9EF0FF0DEEF0FF00350015E21
:101FB6000450025A0780D89004320332052ECBEF24
:101FC6000FF00650D8B4EAEF0FF0ECEF0FF0F0EF99
:101FD6000FF0076C081ED8B0082A07C001F008C029
:101FE60002F01200010E1D6E17501810D8A4FEEF55
:101FF6000FF000EF10F004EF10F0000E1D6E54EF1E
:1020060010F01A0637EF10F017C013F018C014F0CE
:102016001A50800F156E0CEC12F01D6E54EF10F076
:1020260017C013F018C014F01A50C00F156E0CEC40
:1020360012F01D6E54EF10F017C013F018C014F014
:102046001A50940F156E0CEC12F01D6E54EF10F032
:1020560017C013F018C014F01A50D40F156E0CECFC
:1020660012F01D6E54EF10F019501B6E1C6A1C50B6
:10207600000AD8B441EF10F054EF10F01B50010ADB
:10208600D8B407EF10F0030AD8B413EF10F0010A22
:10209600D8B41FEF10F0070AD8B42BEF10F054EFA6
:1020A60010F01D501200010E0A6E01500210D8B435
:1020B6005FEF10F061EF10F07BEF10F001C0D9FF79
:1020C60002C0DAFFDF30E832E832070B056E080E91
:1020D600056070EF10F072EF10F07BEF10F0035018
:1020E6000410D8A479EF10F07BEF10F07FEF10F01A
:1020F600000E0A6EB0EF10F001C0D9FF02C0DAFF81
:10210600DF30E832E832070B056E01C0D9FF02C0A6
:10211600DAFFDF50070B066E0650020DDD0EF324C4
:10212600D96E000EF420DA6EDECF07F0DDCF08F0B0
:1021360007C0D9FF08C0DAFFDF50096E052AA6EFEF
:1021460010F0D8900932052EA4EF10F00950010BBB
:1021560003C0D9FF04C0DAFFDF6E0A501200000E7A
:10216600066E02BEBBEF10F0B9EF10F0C1EF10F033
:10217600016C021ED8B0022A010E066E04BEC8EF1C
:1021860010F0C6EF10F0CCEF10F0036C041ED8B0C0
:10219600042A03500410D8B4D3EF10F0D5EF10F092
:1021A600F9EF10F0010E056EDDEF10F0D890033652
:1021B6000436052A04AEE2EF10F0E4EF10F0D9EF92
:1021C60010F00350015C04500258D8A0EDEF10F057
:1021D600EFEF10F0F3EF10F00350015E0450025AD7
:1021E600D89004320332052EE4EF10F00650D8B42E
:1021F600FFEF10F001EF11F005EF11F0016C021E78
:10220600D8B0022A01C001F002C002F01200010E8D
:102216001B6E17501810D8B413EF11F015EF11F00C
:102226001EEF11F019501A10D8A41CEF11F01EEF72
:1022360011F03DEF11F0000E1B6E56EF11F017C0B6
:1022460013F018C014F019C0F6FF1AC0F7FF000EFD
:10225600F86E0F0EF76403D00800F55005D0F6CFE0
:10226600E9FFF7CFEAFFEF50156ED1EC11F01B6EC8
:10227600194A1A2A19C0F6FF1AC0F7FF000EF86E9F
:102286000F0EF76403D00800F55005D0F6CFE9FF2E
:10229600F7CFEAFFEF500009D8A454EF11F056EF3C
:1022A60011F022EF11F01B50120016BE5DEF11F077
:1022B6005FEF11F065EF11F015C01AF016C01BF0B4
:1022C60069EF11F0000E1B6E000E1A6E000E196EED
:1022D600000E186E7BEF11F0000E026E200E016EDE
:1022E60011C003F012C004F02EEC0FF0184A192AA0
:1022F6001A50185C1950800A176E1B50800A17581E
:10230600D8A088EF11F08AEF11F06FEF11F013C02B
:102316000AF014C00BF011C00CF012C00DF0DAEC8C
:1023260013F012000F501010D8A49CEF11F09EEF7E
:1023360011F0A2EF11F0000E136ECFEF11F0000EA8
:10234600146E14500F240B6E000E10200C6E82ECCF
:1023560012F0142A030E1464B3EF11F0B5EF11F066
:10236600A4EF11F0000E156E15500F24116E000E1D
:102376001020126E040E1124016E000E1220026E41
:1023860045EC0CF0136E152A030E1564CDEF11F013
:10239600CFEF11F0B7EF11F01350120013501410D5
:1023A600D8A4D8EF11F0DAEF11F0DEEF11F0000E3D
:1023B600166E0AEF12F0050E1324016E000E14209D
:1023C600026E010E036E80EC0DF0166E13C00BF05C
:1023D60014C00CF015380F0B0D6E47EC12F0166E8C
:1023E60013C00BF014C00CF06AEC13F0166E13C099
:1023F6000BF014C00CF015C00DF047EC12F0166E81
:1024060013C00BF014C00CF06AEC13F0166E1650E5
:10241600120013501410D8A413EF12F015EF12F097
:1024260019EF12F0000E166E45EF12F0050E13248A
:10243600016E000E1420026E000E036E80EC0DF08D
:10244600166E13C00BF014C00CF015380F0B0D6E82
:1024560047EC12F0166E13C00BF014C00CF06AECC9
:1024660013F0166E13C00BF014C00CF015C00DF06F
:1024760047EC12F0166E13C00BF014C00CF06AECA9
:1024860013F0166E165012000B500C10D8A44EEF17
:1024960012F050EF12F054EF12F0000E106E80EFB3
:1024A60012F0000E126E000E116E11500B24016E0A
:1024B60012500C20026E11C00EF00DC00FF00E2A45
:1024C60067EF12F0D8900F320E2E65EF12F00F5014
:1024D600010B036E80EC0DF0106E114A122A12BE2B
:1024E6007EEF12F0125009E1040E115CD8A07EEFC7
:1024F60012F080EF12F058EF12F0105012000B504D
:102506000C10D8B489EF12F08BEF12F09CEF12F09A
:102516000BC0D9FF0CC0DAFFDF30E832E832070B18
:102526000D6E070E0D649AEF12F09CEF12F0A0EFFD
:1025360012F0000E0E6EB6EF12F00BC001F00CC0DA
:1025460002F045EC0CF00E6E0BC001F00CC002F070
:102556000BC0D9FF0CC0DAFF000EDFBE010E036E02
:1025660080EC0DF00E6E0E5012008A0EF66E280EDE
:10257600F76E000EF86E00EED3F010EE1EF00900B6
:10258600F5CFEEFFE550E150FAE1C20EF66E280EE9
:10259600F76E000EF86E00EE70F010EE0FF0090008
:1025A600F5CFEEFFE550E150FAE100EE80F0530E74
:1025B600EE6AE806FDE100EE5AF0160EEE6AE8064F
:1025C600FDE1000EF86E00011BEF08F01E501F1013
:1025D600D8B4F0EF12F0F2EF12F0FBEF12F0225047
:1025E6002310D8A4F9EF12F0FBEF12F0FFEF12F070
:1025F600000E246E14EF13F01EC017F01FC018F063
:1026060020C019F021C01AF0F5EC0FF01EC017F02B
:102616001FC018F022C019F023C01AF00AEC11F0FE
:10262600246E24501200010E576E55505610D8A431
:102636001FEF13F021EF13F025EF13F0000E576E86
:1026460041EF13F055C001F056C002F0000E046EC3
:10265600000E036E000E066E0B0E056EE8EC0AF019
:1026660055C03FF056C040F0310E416E100E426E1E
:1026760053C043F054C044F091EC13F0575012008D
:1026860039C03DF03AC03EF057EF13F037C029F09D
:1026960038C02AF03D0E2B6E000E2C6E3BC02DF07E
:1026A6003CC02EF016EC0EF03DC0F6FF3EC0F7FF24
:1026B6000800F5500009D8A463EF13F065EF13F096
:1026C60049EF13F0000E386E000E376E12000B50F5
:1026D6000C10D8A471EF13F073EF13F077EF13F02B
:1026E600000E0D6E8FEF13F0040E0B24016E000E1C
:1026F6000C20026E010E036E80EC0DF000D000D0AF
:1027060000F0040E0B24016E000E0C20026E000E6B
:10271600036E80EC0DF00D6E0D501200430E456EEB
:10272600000E466E3FC047F040C048F0000E4B6EAC
:10273600000E4A6E000E526E000E516E470E376E38
:10274600000E386E41C039F042C03AF0450E3B6E7D
:10275600000E3C6E43EC13F04A503F24D96E4B50AA
:102766004020DA6EDF6A1200010E056E200E011897
:102776000210D8B4C1EF13F0C3EF13F0D6EF13F085
:10278600F70E0124036EFF0E0220046E045009E1C9
:10279600050E035CD8A0D2EF13F0D4EF13F0D6EFFA
:1027A60013F0000E056E05C001F0026A1200000E5D
:1027B600106E000E0F6EEBEF13F00EC001F0026A02
:1027C6000CC003F00DC004F02EEC0FF00F4A102AD7
:1027D6000F500A24D96E10500B20DA6EDF500E6EA1
:1027E6000E50D8A4F9EF13F0FBEF13F0E0EF13F05F
:1027F600120008BE09EF14F0085006E10704D8B02D
:1028060007EF14F009EF14F017EF14F007C009F002
:1028160008C00AF0091E0A1E094A0A2A09C007F05A
:102826000AC008F01BEF14F007C007F008C008F054
:102836001200D00E0124036EFF0E0220046E045017
:102846000AE10A0E035CD8A02BEF14F02EEF14F069
:10285600010E2FEF14F0000E016E026A12000150F5
:102866000302F3CF05F0F4CF06F001500402F35053
:10287600062602500302F350062605C001F006C0E4
:1028860002F01200890F8A0F8B0F8C0F8D0F800FAD
:10289600810F820F830F840F920F930F940F950F62
:1028A600960F790E176E000E186EE7EC0CF0710E8F
:1028B6000F6E000E106E95EC11F0120001020A1256
:0B28C6001A626A727A131B232B0B03AB
:0828D20054EC14F01200120096
:020000040030CA
:0E000000FF02091EFF8181FF0FC00FE00F40BD
:00000001FF
